{"abi":[{"type":"constructor","inputs":[{"name":"_seller","type":"address","internalType":"address"},{"name":"_agent","type":"address","internalType":"address"}],"stateMutability":"payable"},{"type":"function","name":"agent","inputs":[],"outputs":[{"name":"","type":"address","internalType":"address"}],"stateMutability":"view"},{"type":"function","name":"amount","inputs":[],"outputs":[{"name":"","type":"uint256","internalType":"uint256"}],"stateMutability":"view"},{"type":"function","name":"buyer","inputs":[],"outputs":[{"name":"","type":"address","internalType":"address"}],"stateMutability":"view"},{"type":"function","name":"confirmDelivery","inputs":[],"outputs":[],"stateMutability":"nonpayable"},{"type":"function","name":"dispute","inputs":[],"outputs":[],"stateMutability":"nonpayable"},{"type":"function","name":"fund","inputs":[],"outputs":[],"stateMutability":"payable"},{"type":"function","name":"refund","inputs":[],"outputs":[],"stateMutability":"nonpayable"},{"type":"function","name":"release","inputs":[],"outputs":[],"stateMutability":"nonpayable"},{"type":"function","name":"resolve","inputs":[{"name":"recipient","type":"address","internalType":"address"}],"outputs":[],"stateMutability":"nonpayable"},{"type":"function","name":"seller","inputs":[],"outputs":[{"name":"","type":"address","internalType":"address"}],"stateMutability":"view"},{"type":"function","name":"state","inputs":[],"outputs":[{"name":"","type":"uint8","internalType":"enum Escrow.State"}],"stateMutability":"view"},{"type":"event","name":"Confirmed","inputs":[{"name":"seller","type":"address","indexed":true,"internalType":"address"}],"anonymous":false},{"type":"event","name":"Disputed","inputs":[{"name":"by","type":"address","indexed":true,"internalType":"address"}],"anonymous":false},{"type":"event","name":"Funded","inputs":[{"name":"buyer","type":"address","indexed":true,"internalType":"address"},{"name":"amount","type":"uint256","indexed":false,"internalType":"uint256"}],"anonymous":false},{"type":"event","name":"Initiated","inputs":[{"name":"buyer","type":"address","indexed":true,"internalType":"address"},{"name":"seller","type":"address","indexed":true,"internalType":"address"},{"name":"amount","type":"uint256","indexed":false,"internalType":"uint256"}],"anonymous":false},{"type":"event","name":"Refunded","inputs":[{"name":"buyer","type":"address","indexed":true,"internalType":"address"},{"name":"amount","type":"uint256","indexed":false,"internalType":"uint256"}],"anonymous":false},{"type":"event","name":"Released","inputs":[{"name":"seller","type":"address","indexed":true,"internalType":"address"},{"name":"amount","type":"uint256","indexed":false,"internalType":"uint256"}],"anonymous":false},{"type":"event","name":"Resolved","inputs":[{"name":"resolver","type":"address","indexed":true,"internalType":"address"},{"name":"recipient","type":"address","indexed":false,"internalType":"address"},{"name":"amount","type":"uint256","indexed":false,"internalType":"uint256"}],"anonymous":false}],"bytecode":{"object":"0x608060405260405161160f38038061160f83398181016040528101906100259190610219565b335f60016101000a81548173ffffffffffffffffffffffffffffffffffffffff021916908373ffffffffffffffffffffffffffffffffffffffff1602179055508160015f6101000a81548173ffffffffffffffffffffffffffffffffffffffff021916908373ffffffffffffffffffffffffffffffffffffffff1602179055508060025f6101000a81548173ffffffffffffffffffffffffffffffffffffffff021916908373ffffffffffffffffffffffffffffffffffffffff1602179055505f5f5f6101000a81548160ff0219169083600581111561010857610107610257565b5b021790555060015f9054906101000a900473ffffffffffffffffffffffffffffffffffffffff1673ffffffffffffffffffffffffffffffffffffffff165f60019054906101000a900473ffffffffffffffffffffffffffffffffffffffff1673ffffffffffffffffffffffffffffffffffffffff167f7a471b0b5450973d55efe02bbd0e1ab6e0970f19374746e0ba1c3eb4476d22da346040516101ac919061029c565b60405180910390a350506102b5565b5f5ffd5b5f73ffffffffffffffffffffffffffffffffffffffff82169050919050565b5f6101e8826101bf565b9050919050565b6101f8816101de565b8114610202575f5ffd5b50565b5f81519050610213816101ef565b92915050565b5f5f6040838503121561022f5761022e6101bb565b5b5f61023c85828601610205565b925050602061024d85828601610205565b9150509250929050565b7f4e487b71000000000000000000000000000000000000000000000000000000005f52602160045260245ffd5b5f819050919050565b61029681610284565b82525050565b5f6020820190506102af5f83018461028d565b92915050565b61134d806102c25f395ff3fe60806040526004361061009b575f3560e01c806386d1a69f1161006357806386d1a69f14610147578063aa8c217c1461015d578063b60d428814610187578063c19d93fb14610191578063f240f7c3146101bb578063f5ff5c76146101d15761009b565b806308551a531461009f57806355ea6c47146100c9578063590e1ae3146100f15780635e10177b146101075780637150d8ae1461011d575b5f5ffd5b3480156100aa575f5ffd5b506100b36101fb565b6040516100c09190610ed9565b60405180910390f35b3480156100d4575f5ffd5b506100ef60048036038101906100ea9190610f20565b610220565b005b3480156100fc575f5ffd5b506101056104cf565b005b348015610112575f5ffd5b5061011b6106d7565b005b348015610128575f5ffd5b5061013161084a565b60405161013e9190610ed9565b60405180910390f35b348015610152575f5ffd5b5061015b61086f565b005b348015610168575f5ffd5b50610171610ace565b60405161017e9190610f63565b60405180910390f35b61018f610ad4565b005b34801561019c575f5ffd5b506101a5610c9a565b6040516101b29190610fef565b60405180910390f35b3480156101c6575f5ffd5b506101cf610cab565b005b3480156101dc575f5ffd5b506101e5610e75565b6040516101f29190610ed9565b60405180910390f35b60015f9054906101000a900473ffffffffffffffffffffffffffffffffffffffff1681565b60025f9054906101000a900473ffffffffffffffffffffffffffffffffffffffff1673ffffffffffffffffffffffffffffffffffffffff163373ffffffffffffffffffffffffffffffffffffffff16146102af576040517f08c379a00000000000000000000000000000000000000000000000000000000081526004016102a690611062565b60405180910390fd5b60048060058111156102c4576102c3610f7c565b5b5f5f9054906101000a900460ff1660058111156102e4576102e3610f7c565b5b14610324576040517f08c379a000000000000000000000000000000000000000000000000000000000815260040161031b906110ca565b60405180910390fd5b5f60019054906101000a900473ffffffffffffffffffffffffffffffffffffffff1673ffffffffffffffffffffffffffffffffffffffff168273ffffffffffffffffffffffffffffffffffffffff1614806103cb575060015f9054906101000a900473ffffffffffffffffffffffffffffffffffffffff1673ffffffffffffffffffffffffffffffffffffffff168273ffffffffffffffffffffffffffffffffffffffff16145b61040a576040517f08c379a000000000000000000000000000000000000000000000000000000000815260040161040190611132565b60405180910390fd5b60055f5f6101000a81548160ff0219169083600581111561042e5761042d610f7c565b5b02179055508173ffffffffffffffffffffffffffffffffffffffff166108fc60035490811502906040515f60405180830381858888f19350505050158015610478573d5f5f3e3d5ffd5b503373ffffffffffffffffffffffffffffffffffffffff167f7b5e572d4197e10e590b08b790c705a488c2a9aa7591726b55de089d1f66159f836003546040516104c3929190611150565b60405180910390a25050565b60025f9054906101000a900473ffffffffffffffffffffffffffffffffffffffff1673ffffffffffffffffffffffffffffffffffffffff163373ffffffffffffffffffffffffffffffffffffffff161461055e576040517f08c379a000000000000000000000000000000000000000000000000000000000815260040161055590611062565b60405180910390fd5b600180600581111561057357610572610f7c565b5b5f5f9054906101000a900460ff16600581111561059357610592610f7c565b5b146105d3576040517f08c379a00000000000000000000000000000000000000000000000000000000081526004016105ca906110ca565b60405180910390fd5b60055f5f6101000a81548160ff021916908360058111156105f7576105f6610f7c565b5b02179055505f60019054906101000a900473ffffffffffffffffffffffffffffffffffffffff1673ffffffffffffffffffffffffffffffffffffffff166108fc60035490811502906040515f60405180830381858888f19350505050158015610662573d5f5f3e3d5ffd5b505f60019054906101000a900473ffffffffffffffffffffffffffffffffffffffff1673ffffffffffffffffffffffffffffffffffffffff167fd7dee2702d63ad89917b6a4da9981c90c4d24f8c2bdfd64c604ecae57d8d06516003546040516106cc9190610f63565b60405180910390a250565b60015f9054906101000a900473ffffffffffffffffffffffffffffffffffffffff1673ffffffffffffffffffffffffffffffffffffffff163373ffffffffffffffffffffffffffffffffffffffff1614610766576040517f08c379a000000000000000000000000000000000000000000000000000000000815260040161075d906111c1565b60405180910390fd5b600180600581111561077b5761077a610f7c565b5b5f5f9054906101000a900460ff16600581111561079b5761079a610f7c565b5b146107db576040517f08c379a00000000000000000000000000000000000000000000000000000000081526004016107d2906110ca565b60405180910390fd5b60025f5f6101000a81548160ff021916908360058111156107ff576107fe610f7c565b5b02179055503373ffffffffffffffffffffffffffffffffffffffff167fd415b905d4dd806bfba99a7a0e6351bd0c9db3a9912add21c0e6bef4479f673f60405160405180910390a250565b5f60019054906101000a900473ffffffffffffffffffffffffffffffffffffffff1681565b600280600581111561088457610883610f7c565b5b5f5f9054906101000a900460ff1660058111156108a4576108a3610f7c565b5b146108e4576040517f08c379a00000000000000000000000000000000000000000000000000000000081526004016108db906110ca565b60405180910390fd5b5f60019054906101000a900473ffffffffffffffffffffffffffffffffffffffff1673ffffffffffffffffffffffffffffffffffffffff163373ffffffffffffffffffffffffffffffffffffffff16148061098b575060025f9054906101000a900473ffffffffffffffffffffffffffffffffffffffff1673ffffffffffffffffffffffffffffffffffffffff163373ffffffffffffffffffffffffffffffffffffffff16145b6109ca576040517f08c379a00000000000000000000000000000000000000000000000000000000081526004016109c190611229565b60405180910390fd5b60035f5f6101000a81548160ff021916908360058111156109ee576109ed610f7c565b5b021790555060015f9054906101000a900473ffffffffffffffffffffffffffffffffffffffff1673ffffffffffffffffffffffffffffffffffffffff166108fc60035490811502906040515f60405180830381858888f19350505050158015610a59573d5f5f3e3d5ffd5b5060015f9054906101000a900473ffffffffffffffffffffffffffffffffffffffff1673ffffffffffffffffffffffffffffffffffffffff167fb21fb52d5749b80f3182f8c6992236b5e5576681880914484d7f4c9b062e619e600354604051610ac39190610f63565b60405180910390a250565b60035481565b5f60019054906101000a900473ffffffffffffffffffffffffffffffffffffffff1673ffffffffffffffffffffffffffffffffffffffff163373ffffffffffffffffffffffffffffffffffffffff1614610b63576040517f08c379a0000000000000000000000000000000000000000000000000000000008152600401610b5a90611291565b60405180910390fd5b5f806005811115610b7757610b76610f7c565b5b5f5f9054906101000a900460ff166005811115610b9757610b96610f7c565b5b14610bd7576040517f08c379a0000000000000000000000000000000000000000000000000000000008152600401610bce906110ca565b60405180910390fd5b5f3411610c19576040517f08c379a0000000000000000000000000000000000000000000000000000000008152600401610c10906112f9565b60405180910390fd5b3460038190555060015f5f6101000a81548160ff02191690836005811115610c4457610c43610f7c565b5b02179055503373ffffffffffffffffffffffffffffffffffffffff167f5af8184bef8e4b45eb9f6ed7734d04da38ced226495548f46e0c8ff8d7d9a52434604051610c8f9190610f63565b60405180910390a250565b5f5f9054906101000a900460ff1681565b6001806005811115610cc057610cbf610f7c565b5b5f5f9054906101000a900460ff166005811115610ce057610cdf610f7c565b5b14610d20576040517f08c379a0000000000000000000000000000000000000000000000000000000008152600401610d17906110ca565b60405180910390fd5b5f60019054906101000a900473ffffffffffffffffffffffffffffffffffffffff1673ffffffffffffffffffffffffffffffffffffffff163373ffffffffffffffffffffffffffffffffffffffff161480610dc7575060015f9054906101000a900473ffffffffffffffffffffffffffffffffffffffff1673ffffffffffffffffffffffffffffffffffffffff163373ffffffffffffffffffffffffffffffffffffffff16145b610e06576040517f08c379a0000000000000000000000000000000000000000000000000000000008152600401610dfd90611229565b60405180910390fd5b60045f5f6101000a81548160ff02191690836005811115610e2a57610e29610f7c565b5b02179055503373ffffffffffffffffffffffffffffffffffffffff167f695fbf2fe28b4fde5705122279ffc4160ebfc0f45e4d96f7e6699001be5062ef60405160405180910390a250565b60025f9054906101000a900473ffffffffffffffffffffffffffffffffffffffff1681565b5f73ffffffffffffffffffffffffffffffffffffffff82169050919050565b5f610ec382610e9a565b9050919050565b610ed381610eb9565b82525050565b5f602082019050610eec5f830184610eca565b92915050565b5f5ffd5b610eff81610eb9565b8114610f09575f5ffd5b50565b5f81359050610f1a81610ef6565b92915050565b5f60208284031215610f3557610f34610ef2565b5b5f610f4284828501610f0c565b91505092915050565b5f819050919050565b610f5d81610f4b565b82525050565b5f602082019050610f765f830184610f54565b92915050565b7f4e487b71000000000000000000000000000000000000000000000000000000005f52602160045260245ffd5b60068110610fba57610fb9610f7c565b5b50565b5f819050610fca82610fa9565b919050565b5f610fd982610fbd565b9050919050565b610fe981610fcf565b82525050565b5f6020820190506110025f830184610fe0565b92915050565b5f82825260208201905092915050565b7f4e6f74206167656e7400000000000000000000000000000000000000000000005f82015250565b5f61104c600983611008565b915061105782611018565b602082019050919050565b5f6020820190508181035f83015261107981611040565b9050919050565b7f496e76616c6964207374617465000000000000000000000000000000000000005f82015250565b5f6110b4600d83611008565b91506110bf82611080565b602082019050919050565b5f6020820190508181035f8301526110e1816110a8565b9050919050565b7f496e76616c696420726563697069656e740000000000000000000000000000005f82015250565b5f61111c601183611008565b9150611127826110e8565b602082019050919050565b5f6020820190508181035f83015261114981611110565b9050919050565b5f6040820190506111635f830185610eca565b6111706020830184610f54565b9392505050565b7f4e6f742073656c6c6572000000000000000000000000000000000000000000005f82015250565b5f6111ab600a83611008565b91506111b682611177565b602082019050919050565b5f6020820190508181035f8301526111d88161119f565b9050919050565b7f4e6f7420617574686f72697a65640000000000000000000000000000000000005f82015250565b5f611213600e83611008565b915061121e826111df565b602082019050919050565b5f6020820190508181035f83015261124081611207565b9050919050565b7f4e6f7420627579657200000000000000000000000000000000000000000000005f82015250565b5f61127b600983611008565b915061128682611247565b602082019050919050565b5f6020820190508181035f8301526112a88161126f565b9050919050565b7f4e6f2066756e64732073656e74000000000000000000000000000000000000005f82015250565b5f6112e3600d83611008565b91506112ee826112af565b602082019050919050565b5f6020820190508181035f830152611310816112d7565b905091905056fea2646970667358221220ae644eca56fde6cf047cf1f5753856582315caaeeec96db4f393d7d802ec6d5d64736f6c634300081c0033","linkReferences":{}},"methodIdentifiers":{"agent()":"f5ff5c76","amount()":"aa8c217c","buyer()":"7150d8ae","confirmDelivery()":"5e10177b","dispute()":"f240f7c3","fund()":"b60d4288","refund()":"590e1ae3","release()":"86d1a69f","resolve(address)":"55ea6c47","seller()":"08551a53","state()":"c19d93fb"},"id":0}